{
  "_format": "hh-sol-artifact-1",
  "contractName": "Arbitrage",
  "sourceName": "contracts/Arbritrage.sol",
  "abi": [
    {
      "inputs": [
        {
          "internalType": "address",
          "name": "dex1Addr",
          "type": "address"
        },
        {
          "internalType": "address",
          "name": "dex2Addr",
          "type": "address"
        },
        {
          "internalType": "address",
          "name": "tokenA",
          "type": "address"
        },
        {
          "internalType": "uint256",
          "name": "amount",
          "type": "uint256"
        }
      ],
      "name": "executeArbitrage",
      "outputs": [],
      "stateMutability": "nonpayable",
      "type": "function"
    }
  ],
  "bytecode": "0x6080604052348015600f57600080fd5b506106a38061001f6000396000f3fe608060405234801561001057600080fd5b506004361061002b5760003560e01c8063ca55c76414610030575b600080fd5b61004a60048036038101906100459190610430565b61004c565b005b600084905060008490508373ffffffffffffffffffffffffffffffffffffffff1663095ea7b387856040518363ffffffff1660e01b81526004016100919291906104b5565b6020604051808303816000875af11580156100b0573d6000803e3d6000fd5b505050506040513d601f19601f820116820180604052508101906100d49190610516565b5060008273ffffffffffffffffffffffffffffffffffffffff1663d004f0f786866040518363ffffffff1660e01b81526004016101129291906104b5565b6020604051808303816000875af1158015610131573d6000803e3d6000fd5b505050506040513d601f19601f820116820180604052508101906101559190610558565b905060008373ffffffffffffffffffffffffffffffffffffffff16635f64b55b6040518163ffffffff1660e01b8152600401602060405180830381865afa1580156101a4573d6000803e3d6000fd5b505050506040513d601f19601f820116820180604052508101906101c891906105c3565b90508073ffffffffffffffffffffffffffffffffffffffff1663095ea7b388846040518363ffffffff1660e01b81526004016102059291906104b5565b6020604051808303816000875af1158015610224573d6000803e3d6000fd5b505050506040513d601f19601f820116820180604052508101906102489190610516565b5060008373ffffffffffffffffffffffffffffffffffffffff1663d004f0f783856040518363ffffffff1660e01b81526004016102869291906104b5565b6020604051808303816000875af11580156102a5573d6000803e3d6000fd5b505050506040513d601f19601f820116820180604052508101906102c99190610558565b905085811161030d576040517f08c379a00000000000000000000000000000000000000000000000000000000081526004016103049061064d565b60405180910390fd5b8673ffffffffffffffffffffffffffffffffffffffff1663a9059cbb33836040518363ffffffff1660e01b81526004016103489291906104b5565b6020604051808303816000875af1158015610367573d6000803e3d6000fd5b505050506040513d601f19601f8201168201806040525081019061038b9190610516565b50505050505050505050565b600080fd5b600073ffffffffffffffffffffffffffffffffffffffff82169050919050565b60006103c78261039c565b9050919050565b6103d7816103bc565b81146103e257600080fd5b50565b6000813590506103f4816103ce565b92915050565b6000819050919050565b61040d816103fa565b811461041857600080fd5b50565b60008135905061042a81610404565b92915050565b6000806000806080858703121561044a57610449610397565b5b6000610458878288016103e5565b9450506020610469878288016103e5565b935050604061047a878288016103e5565b925050606061048b8782880161041b565b91505092959194509250565b6104a0816103bc565b82525050565b6104af816103fa565b82525050565b60006040820190506104ca6000830185610497565b6104d760208301846104a6565b9392505050565b60008115159050919050565b6104f3816104de565b81146104fe57600080fd5b50565b600081519050610510816104ea565b92915050565b60006020828403121561052c5761052b610397565b5b600061053a84828501610501565b91505092915050565b60008151905061055281610404565b92915050565b60006020828403121561056e5761056d610397565b5b600061057c84828501610543565b91505092915050565b6000610590826103bc565b9050919050565b6105a081610585565b81146105ab57600080fd5b50565b6000815190506105bd81610597565b92915050565b6000602082840312156105d9576105d8610397565b5b60006105e7848285016105ae565b91505092915050565b600082825260208201905092915050565b7f417262697472616765206e6f742070726f66697461626c650000000000000000600082015250565b60006106376018836105f0565b915061064282610601565b602082019050919050565b600060208201905081810360008301526106668161062a565b905091905056fea26469706673582212206845746cc4d3e0790e4a51e6f7c56cd0c178ff6878647b9bbc5a747b1b8182df64736f6c634300081c0033",
  "linkReferences": {},
  "deployedLinkReferences": {}
}